:1000000000BFFFFF000010000000210000002200E0
:10001000000023000000240000002500000026004E
:100020000000270000002800000000000000000081
:1000300000FAFAAA000000000000290000002A00CF
:1000400000000000000000000000000000000000B0
:1000500000000000000000000000000000000000A0
:100060000000000000000000000000000000200070
:100070000000000000000000000000000000000080
:1000800000002B0000002B0000002B0000002B00C4
:1000900000002B0000002B0000002B0000002B00B4
:1000A00000002B0000002B0000002B0000002B00A4
:1000B00000002B0000002B0000002B0000002B0094
:1000C0000000000000000000000000000000000030
:1000D0000000000000000000000000000000000020
:1000E0000000000000000000000000000000000010
:1000F0000000000000000000000000000000000000
:1001000060000F7000000000000000000000000010
:1001100000000000000000000000000000000000DF
:1001200000000000000000000000000000000000CF
:1001300000000000000000000000000000000000BF
:1001400000000000000000000000000000000000AF
:101000007600287C00410731267C00420001247CC8
:101010000041000014FC00024BFA1FE6101D14C032
:101020000C00000A660000064EBA005E0C000000CC
:101030006600FFEA4BFA1FF8101D14C00C00000AEE
:10104000660000064EBA00420C0000006600FFEA8F
:101050004BFA2018101D14C00C00000A6600000690
:101060004EBA00260C0000006600FFEA247C004116
:1010700006E1223C000003E84E714E71044100017C
:101080006600FFF66000FFEC2E0A048700410000B6
:101090008EFC0050068700000001CEFC0050247C2E
:1010A00000410001D5C74E7500000000000000009F
:1010B0000000000000000000000000000000000030
:1010C0000000000000000000000000000000000020
:1010D0000000000000000000000000000000000010
:1010E0000000000000000000000000000000000000
:10200000341314C2B9CA6206247C004106E14E733F
:1020100000000000000000000000000000000000C0
:1020200000000000000000000000000000000000B0
:1020300000000000000000000000000000000000A0
:102040000000000000000000000000000000000090
:102050000000000000000000000000000000000080
:102060000000000000000000000000000000000070
:102070000000000000000000000000000000000060
:102080000000000000000000000000000000000050
:102090000000000000000000000000000000000040
:1020A0000000000000000000000000000000000030
:1020B0000000000000000000000000000000000020
:1020C0000000000000000000000000000000000010
:1020D0000000000000000000000000000000000000
:1020E00000000000000000000000000000000000F0
:1020F00000000000000000000000000000000000E0
:102100004E714E716000FFFA0000000000000000F8
:1021100000000000000000000000000000000000BF
:1021200000000000000000000000000000000000AF
:10213000000000000000000000000000000000009F
:10214000000000000000000000000000000000008F
:10215000000000000000000000000000000000007F
:10216000000000000000000000000000000000006F
:10217000000000000000000000000000000000005F
:10218000000000000000000000000000000000004F
:10219000000000000000000000000000000000003F
:1021A000000000000000000000000000000000002F
:1021B000000000000000000000000000000000001F
:1021C000000000000000000000000000000000000F
:1021D00000000000000000000000000000000000FF
:1021E00000000000000000000000000000000000EF
:1021F00000000000000000000000000000000000DF
:102200004E714E716000FFFA0000000000000000F7
:1022100000000000000000000000000000000000BE
:1022200000000000000000000000000000000000AE
:10223000000000000000000000000000000000009E
:10224000000000000000000000000000000000008E
:10225000000000000000000000000000000000007E
:10226000000000000000000000000000000000006E
:10227000000000000000000000000000000000005E
:10228000000000000000000000000000000000004E
:10229000000000000000000000000000000000003E
:1022A000000000000000000000000000000000002E
:1022B000000000000000000000000000000000001E
:1022C000000000000000000000000000000000000E
:1022D00000000000000000000000000000000000FE
:1022E00000000000000000000000000000000000EE
:1022F00000000000000000000000000000000000DE
:102300004E714E716000FFFA0000000000000000F6
:1023100000000000000000000000000000000000BD
:1023200000000000000000000000000000000000AD
:10233000000000000000000000000000000000009D
:10234000000000000000000000000000000000008D
:10235000000000000000000000000000000000007D
:10236000000000000000000000000000000000006D
:10237000000000000000000000000000000000005D
:10238000000000000000000000000000000000004D
:10239000000000000000000000000000000000003D
:1023A000000000000000000000000000000000002D
:1023B000000000000000000000000000000000001D
:1023C000000000000000000000000000000000000D
:1023D00000000000000000000000000000000000FD
:1023E00000000000000000000000000000000000ED
:1023F00000000000000000000000000000000000DD
:102400004E714E716000FFFA0000000000000000F5
:1024100000000000000000000000000000000000BC
:1024200000000000000000000000000000000000AC
:10243000000000000000000000000000000000009C
:10244000000000000000000000000000000000008C
:10245000000000000000000000000000000000007C
:10246000000000000000000000000000000000006C
:10247000000000000000000000000000000000005C
:10248000000000000000000000000000000000004C
:10249000000000000000000000000000000000003C
:1024A000000000000000000000000000000000002C
:1024B000000000000000000000000000000000001C
:1024C000000000000000000000000000000000000C
:1024D00000000000000000000000000000000000FC
:1024E00000000000000000000000000000000000EC
:1024F00000000000000000000000000000000000DC
:102500004E714E716000FFFA0000000000000000F4
:1025100000000000000000000000000000000000BB
:1025200000000000000000000000000000000000AB
:10253000000000000000000000000000000000009B
:10254000000000000000000000000000000000008B
:10255000000000000000000000000000000000007B
:10256000000000000000000000000000000000006B
:10257000000000000000000000000000000000005B
:10258000000000000000000000000000000000004B
:10259000000000000000000000000000000000003B
:1025A000000000000000000000000000000000002B
:1025B000000000000000000000000000000000001B
:1025C000000000000000000000000000000000000B
:1025D00000000000000000000000000000000000FB
:1025E00000000000000000000000000000000000EB
:1025F00000000000000000000000000000000000DB
:102600004E714E716000FFFA0000000000000000F3
:1026100000000000000000000000000000000000BA
:1026200000000000000000000000000000000000AA
:10263000000000000000000000000000000000009A
:10264000000000000000000000000000000000008A
:10265000000000000000000000000000000000007A
:10266000000000000000000000000000000000006A
:10267000000000000000000000000000000000005A
:10268000000000000000000000000000000000004A
:10269000000000000000000000000000000000003A
:1026A000000000000000000000000000000000002A
:1026B000000000000000000000000000000000001A
:1026C000000000000000000000000000000000000A
:1026D00000000000000000000000000000000000FA
:1026E00000000000000000000000000000000000EA
:1026F00000000000000000000000000000000000DA
:102700004E714E716000FFFA0000000000000000F2
:1027100000000000000000000000000000000000B9
:1027200000000000000000000000000000000000A9
:102730000000000000000000000000000000000099
:102740000000000000000000000000000000000089
:102750000000000000000000000000000000000079
:102760000000000000000000000000000000000069
:102770000000000000000000000000000000000059
:102780000000000000000000000000000000000049
:102790000000000000000000000000000000000039
:1027A0000000000000000000000000000000000029
:1027B0000000000000000000000000000000000019
:1027C0000000000000000000000000000000000009
:1027D00000000000000000000000000000000000F9
:1027E00000000000000000000000000000000000E9
:1027F00000000000000000000000000000000000D9
:102800004E714E716000FFFA0000000000000000F1
:1028100000000000000000000000000000000000B8
:1028200000000000000000000000000000000000A8
:102830000000000000000000000000000000000098
:102840000000000000000000000000000000000088
:102850000000000000000000000000000000000078
:102860000000000000000000000000000000000068
:102870000000000000000000000000000000000058
:102880000000000000000000000000000000000048
:102890000000000000000000000000000000000038
:1028A0000000000000000000000000000000000028
:1028B0000000000000000000000000000000000018
:1028C0000000000000000000000000000000000008
:1028D00000000000000000000000000000000000F8
:1028E00000000000000000000000000000000000E8
:1028F00000000000000000000000000000000000D8
:102900004E714E716000FFFA0000000000000000F0
:1029100000000000000000000000000000000000B7
:1029200000000000000000000000000000000000A7
:102930000000000000000000000000000000000097
:102940000000000000000000000000000000000087
:102950000000000000000000000000000000000077
:102960000000000000000000000000000000000067
:102970000000000000000000000000000000000057
:102980000000000000000000000000000000000047
:102990000000000000000000000000000000000037
:1029A0000000000000000000000000000000000027
:1029B0000000000000000000000000000000000017
:1029C0000000000000000000000000000000000007
:1029D00000000000000000000000000000000000F7
:1029E00000000000000000000000000000000000E7
:1029F00000000000000000000000000000000000D7
:102A00004E714E716000FFFA0000000000000000EF
:102A100000000000000000000000000000000000B6
:102A200000000000000000000000000000000000A6
:102A30000000000000000000000000000000000096
:102A40000000000000000000000000000000000086
:102A50000000000000000000000000000000000076
:102A60000000000000000000000000000000000066
:102A70000000000000000000000000000000000056
:102A80000000000000000000000000000000000046
:102A90000000000000000000000000000000000036
:102AA0000000000000000000000000000000000026
:102AB0000000000000000000000000000000000016
:102AC0000000000000000000000000000000000006
:102AD00000000000000000000000000000000000F6
:102AE00000000000000000000000000000000000E6
:102AF00000000000000000000000000000000000D6
:102B00004E714E716000FFFA0000000000000000EE
:102B100000000000000000000000000000000000B5
:102B200000000000000000000000000000000000A5
:102B30000000000000000000000000000000000095
:102B40000000000000000000000000000000000085
:103000003D3D3D3D3D3D3D3D3D3D3D3D3D3D0A2040
:103010004A6F6E53686172702E6E6574200A3D3D72
:103020003D3D3D3D3D3D3D3D3D3D3D3D0A005765FE
:103030006C636F6D6520746F204A6F6E53686172A8
:10304000702E6E6574202D2D206261636B206F6E73
:103050006C696E65202D2D206E6F77206F6E20506D
:1030600043442D3638210A0A00005043442D363897
:103070002069732061207669727475616C207265B5
:1030800074726F20636F6D7075746572206F662047
:103090006D792064657369676E2E20204974206500
:1030A00078697374732063757272656E746C7920BD
:1030B000617320616E0A656D756C6174656420636F
:1030C0006F6D7075746572202D2D2062726F75673B
:1030D000687420746F20796F75722062726F7773D5
:1030E0006572207468726F75676820746865206DFA
:1030F00061676963206F6620456D736372697074E0
:10310000656E2E0A536F6F6E2C2074686520666F93
:103110006C6C6F77696E67206C696E6B7320776972
:103120006C6C2062652066756E6374696F6E616C8D
:103130002E0A0A496E20746865206D65616E746997
:103140006D652C20656E6A6F7920746865206465F2
:103150006D6F2E203A290A0A50726F6A6563747384
:103160000A2D2D2D2D2D2D2D2D0A20312E205043B1
:10317000442D36380A20322E2047616D65626F7902
:1031800020436F6C6F72205465726D696E616C0ABA
:1031900020332E205441440A20342E20526574726C
:1031A0006F636F6D707574696E670A0A4D6973633A
:1031B0000A2D2D2D2D0A20352E204D6F7265206190
:1031C000626F7574206D650A20362E2054776974FD
:1031D0007465723F0A0A3C747970655F62656C6F52
:0631E000773A3E0A0A00E6
:00000001FF
