:1000000000BFFFFF000010000000220000002300DE
:10001000000024000000250000002600000027004A
:10002000000028000000290000000000000000007F
:1000300000FAFAAA0000000000002A0000002B00CD
:1000400000000000000000000000000000000000B0
:1000500000000000000000000000000000000000A0
:10006000000000000000000000000000000021006F
:1000700000001288000013180000000000000000BB
:1000800000002C0000002C0000002C0000002C00C0
:1000900000002C0000002C0000002C0000002C00B0
:1000A00000002C0000002C0000002C0000002C00A0
:1000B00000002C0000002C0000002C0000002C0090
:101000007600287C00410731267C004200012C7CC0
:1010100000420002247C0041000014FC0002247CF9
:1010200000410001203C0000072F14FC002051C8A3
:10103000FFFA247C004100014EBA01904BFA20C215
:101040004EBA01AA4EBA021E4BFA20EA4EBA019ECF
:101050004EBA02124BFA21124EBA01924EBA020651
:101060004BFA213A4EBA01864EBA01FA4EBA01F64F
:101070004BFA215E4EBA01764EBA01EA4EBA01E64B
:101080004BFA21674EBA01664EBA01DA207C0000A5
:10109000300430BC0000207C0000300630BC000C66
:1010A000207C0000300830BC0000207C0000300AAA
:1010B00030BC0011207C0000300030BC0000207CDF
:1010C0000000300230BC000B4BFA21694EBA011E01
:1010D0004EBA0192207C0000300030BC0000207C21
:1010E0000000300230BC00104BFA21774EBA00FEEF
:1010F0004EBA017246FC270046FC2000103900421F
:1011000000006700002C10390042000113FC0000B1
:10111000004200000C000031670000280C00003283
:101120006700006413C00045000013C000450004C0
:10113000223C000003E8044100016600FFFA600061
:10114000FFBC1039004500030A00008013C00045B1
:101150000003207C0000300030BC001E207C00001A
:10116000300230BC000B080000076700000E4BFA8D
:10117000211F4EBA00786000FF844BFA21214EBA3D
:10118000006C6000FF781039004500070A000080FD
:1011900013C000450007207C0000300030BC001E5A
:1011A000207C0000300230BC0010080000076700FF
:1011B000000E4BFA20DB4EBA00346000FF404BFAC1
:1011C00020DD4EBA00286000FF3413FC0003004508
:1011D000000313FC000F0045000313FC000300454F
:1011E000000713FC000F004500074E75207C00002F
:1011F00030003A10207C000030023C10101D6700C7
:1012000000520C00000A67000034207C00410001FD
:101210003E06CEFC0050D1C7D1C5108052450C45CA
:10122000004F6F00FFD83A3C000052460C460016B3
:101230006F00FFCA3C3C00166000FFC23A3C000051
:1012400052460C4600166F00FFB43C3C001660008E
:10125000FFAC207C000030003085207C0000300294
:1012600030864E75207C0000300030BC0000207CB1
:1012700000003002301052400C4000166F00000693
:10128000303C001630804E752F002F012F0810398A
:101290000045000208000000670000761239004592
:1012A0000001207C000030003410207C000030025F
:1012B0003610207C000030043A10207C00003006FC
:1012C0003C10207C004100013E06CEFC0050D1C7FE
:1012D000D1C5108152450C45004F6F0000143A3CB7
:1012E000000052460C46000F6F0000063C3C000C0C
:1012F000207C000030043085207C000030063086E1
:10130000207C000030003082207C000030023083DE
:10131000205F221F201F4E732F002F012F0810392E
:1013200000450006080000006700007612390045FD
:101330000005207C000030003410207C00003002CA
:101340003610207C000030083A10207C0000300A63
:101350003C10207C004100013E06CEFC0050D1C76D
:10136000D1C5108152450C45004F6F0000143A3C26
:10137000000052460C4600146F0000063C3C001171
:10138000207C000030083085207C0000300A308648
:10139000207C000030003082207C0000300230834E
:1013A000205F221F201F4E7300000000000000007D
:1013B000000000000000000000000000000000002D
:1013C000000000000000000000000000000000001D
:1013D000000000000000000000000000000000000D
:1013E00000000000000000000000000000000000FD
:102100004E7300000000000000000000000000000E
:1021100000000000000000000000000000000000BF
:1021200000000000000000000000000000000000AF
:10213000000000000000000000000000000000009F
:10214000000000000000000000000000000000008F
:10215000000000000000000000000000000000007F
:10216000000000000000000000000000000000006F
:10217000000000000000000000000000000000005F
:10218000000000000000000000000000000000004F
:10219000000000000000000000000000000000003F
:1021A000000000000000000000000000000000002F
:1021B000000000000000000000000000000000001F
:1021C000000000000000000000000000000000000F
:1021D00000000000000000000000000000000000FF
:1021E00000000000000000000000000000000000EF
:1021F00000000000000000000000000000000000DF
:102200004E714E716000FFFA0000000000000000F7
:1022100000000000000000000000000000000000BE
:1022200000000000000000000000000000000000AE
:10223000000000000000000000000000000000009E
:10224000000000000000000000000000000000008E
:10225000000000000000000000000000000000007E
:10226000000000000000000000000000000000006E
:10227000000000000000000000000000000000005E
:10228000000000000000000000000000000000004E
:10229000000000000000000000000000000000003E
:1022A000000000000000000000000000000000002E
:1022B000000000000000000000000000000000001E
:1022C000000000000000000000000000000000000E
:1022D00000000000000000000000000000000000FE
:1022E00000000000000000000000000000000000EE
:1022F00000000000000000000000000000000000DE
:102300004E714E716000FFFA0000000000000000F6
:1023100000000000000000000000000000000000BD
:1023200000000000000000000000000000000000AD
:10233000000000000000000000000000000000009D
:10234000000000000000000000000000000000008D
:10235000000000000000000000000000000000007D
:10236000000000000000000000000000000000006D
:10237000000000000000000000000000000000005D
:10238000000000000000000000000000000000004D
:10239000000000000000000000000000000000003D
:1023A000000000000000000000000000000000002D
:1023B000000000000000000000000000000000001D
:1023C000000000000000000000000000000000000D
:1023D00000000000000000000000000000000000FD
:1023E00000000000000000000000000000000000ED
:1023F00000000000000000000000000000000000DD
:102400004E714E716000FFFA0000000000000000F5
:1024100000000000000000000000000000000000BC
:1024200000000000000000000000000000000000AC
:10243000000000000000000000000000000000009C
:10244000000000000000000000000000000000008C
:10245000000000000000000000000000000000007C
:10246000000000000000000000000000000000006C
:10247000000000000000000000000000000000005C
:10248000000000000000000000000000000000004C
:10249000000000000000000000000000000000003C
:1024A000000000000000000000000000000000002C
:1024B000000000000000000000000000000000001C
:1024C000000000000000000000000000000000000C
:1024D00000000000000000000000000000000000FC
:1024E00000000000000000000000000000000000EC
:1024F00000000000000000000000000000000000DC
:102500004E714E716000FFFA0000000000000000F4
:1025100000000000000000000000000000000000BB
:1025200000000000000000000000000000000000AB
:10253000000000000000000000000000000000009B
:10254000000000000000000000000000000000008B
:10255000000000000000000000000000000000007B
:10256000000000000000000000000000000000006B
:10257000000000000000000000000000000000005B
:10258000000000000000000000000000000000004B
:10259000000000000000000000000000000000003B
:1025A000000000000000000000000000000000002B
:1025B000000000000000000000000000000000001B
:1025C000000000000000000000000000000000000B
:1025D00000000000000000000000000000000000FB
:1025E00000000000000000000000000000000000EB
:1025F00000000000000000000000000000000000DB
:102600004E714E716000FFFA0000000000000000F3
:1026100000000000000000000000000000000000BA
:1026200000000000000000000000000000000000AA
:10263000000000000000000000000000000000009A
:10264000000000000000000000000000000000008A
:10265000000000000000000000000000000000007A
:10266000000000000000000000000000000000006A
:10267000000000000000000000000000000000005A
:10268000000000000000000000000000000000004A
:10269000000000000000000000000000000000003A
:1026A000000000000000000000000000000000002A
:1026B000000000000000000000000000000000001A
:1026C000000000000000000000000000000000000A
:1026D00000000000000000000000000000000000FA
:1026E00000000000000000000000000000000000EA
:1026F00000000000000000000000000000000000DA
:102700004E714E716000FFFA0000000000000000F2
:1027100000000000000000000000000000000000B9
:1027200000000000000000000000000000000000A9
:102730000000000000000000000000000000000099
:102740000000000000000000000000000000000089
:102750000000000000000000000000000000000079
:102760000000000000000000000000000000000069
:102770000000000000000000000000000000000059
:102780000000000000000000000000000000000049
:102790000000000000000000000000000000000039
:1027A0000000000000000000000000000000000029
:1027B0000000000000000000000000000000000019
:1027C0000000000000000000000000000000000009
:1027D00000000000000000000000000000000000F9
:1027E00000000000000000000000000000000000E9
:1027F00000000000000000000000000000000000D9
:102800004E714E716000FFFA0000000000000000F1
:1028100000000000000000000000000000000000B8
:1028200000000000000000000000000000000000A8
:102830000000000000000000000000000000000098
:102840000000000000000000000000000000000088
:102850000000000000000000000000000000000078
:102860000000000000000000000000000000000068
:102870000000000000000000000000000000000058
:102880000000000000000000000000000000000048
:102890000000000000000000000000000000000038
:1028A0000000000000000000000000000000000028
:1028B0000000000000000000000000000000000018
:1028C0000000000000000000000000000000000008
:1028D00000000000000000000000000000000000F8
:1028E00000000000000000000000000000000000E8
:1028F00000000000000000000000000000000000D8
:102900004E714E716000FFFA0000000000000000F0
:1029100000000000000000000000000000000000B7
:1029200000000000000000000000000000000000A7
:102930000000000000000000000000000000000097
:102940000000000000000000000000000000000087
:102950000000000000000000000000000000000077
:102960000000000000000000000000000000000067
:102970000000000000000000000000000000000057
:102980000000000000000000000000000000000047
:102990000000000000000000000000000000000037
:1029A0000000000000000000000000000000000027
:1029B0000000000000000000000000000000000017
:1029C0000000000000000000000000000000000007
:1029D00000000000000000000000000000000000F7
:1029E00000000000000000000000000000000000E7
:1029F00000000000000000000000000000000000D7
:102A00004E714E716000FFFA0000000000000000EF
:102A100000000000000000000000000000000000B6
:102A200000000000000000000000000000000000A6
:102A30000000000000000000000000000000000096
:102A40000000000000000000000000000000000086
:102A50000000000000000000000000000000000076
:102A60000000000000000000000000000000000066
:102A70000000000000000000000000000000000056
:102A80000000000000000000000000000000000046
:102A90000000000000000000000000000000000036
:102AA0000000000000000000000000000000000026
:102AB0000000000000000000000000000000000016
:102AC0000000000000000000000000000000000006
:102AD00000000000000000000000000000000000F6
:102AE00000000000000000000000000000000000E6
:102AF00000000000000000000000000000000000D6
:102B00004E714E716000FFFA0000000000000000EE
:102B100000000000000000000000000000000000B5
:102B200000000000000000000000000000000000A5
:102B30000000000000000000000000000000000095
:102B40000000000000000000000000000000000085
:102B50000000000000000000000000000000000075
:102B60000000000000000000000000000000000065
:102B70000000000000000000000000000000000055
:102B80000000000000000000000000000000000045
:102B90000000000000000000000000000000000035
:102BA0000000000000000000000000000000000025
:102BB0000000000000000000000000000000000015
:102BC0000000000000000000000000000000000005
:102BD00000000000000000000000000000000000F5
:102BE00000000000000000000000000000000000E5
:102BF00000000000000000000000000000000000D5
:102C00004E714E716000FFFA0000000000000000ED
:102C100000000000000000000000000000000000B4
:102C200000000000000000000000000000000000A4
:102C30000000000000000000000000000000000094
:102C40000000000000000000000000000000000084
:1031000020205F2020205F2020205F2020205F5F84
:103110005F20205F5F5F5F5F202020205F5F5F5F39
:103120005F20205F5F5F20205F5F5F20205F5F5F29
:103130005F5F2000207C207C207C207C207C207C09
:10314000202F205F205C7C5F2020205F7C20207C63
:103150005F2020205F7C7C205F5F7C7C205F5F7C29
:103160007C5F2020205F7C00207C207C5F7C207C9A
:10317000207C207C7C207C5F7C207C207C207C2030
:1031800020202020207C207C20207C205F7C207C34
:10319000205F7C2020207C207C202000207C5F5F22
:1031A0005F5F5F7C207C5F7C205C5F5F5F2F202007
:1031B0007C5F7C2020202020207C5F7C20207C5F86
:1031C0005F5F7C7C5F5F5F7C20207C5F7C202000D9
:1031D0005043442D36382055415254205465737461
:1031E0002050726F6772616D00557365206B657951
:1031F000626F61726420746F2073656E642063680F
:1032000061726163746572732E20507265737320EE
:10321000312F3220746F20746F67676C65205541C1
:103220005254206C6F6F706261636B206D6F6465C8
:10323000732E005541525431204F75747075743A95
:10324000202020202020202020202020202020207E
:103250002020204C6F6F706261636B3A204F4646AE
:10326000005541525432204F75747075743A2020C5
:10327000202020202020202020202020202020204E
:10328000204C6F6F706261636B3A204F4646004C72
:103290006F6F706261636B3A204F4E20004C6F6F0E
:0C32A000706261636B3A204F46460000EC
:00000001FF
